{
  "_format": "hh-sol-artifact-1",
  "contractName": "MusicNadToken",
  "sourceName": "contracts/MusicNadToken.sol",
  "abi": [
    {
      "inputs": [],
      "stateMutability": "nonpayable",
      "type": "constructor"
    },
    {
      "anonymous": false,
      "inputs": [
        {
          "indexed": true,
          "internalType": "address",
          "name": "owner",
          "type": "address"
        },
        {
          "indexed": true,
          "internalType": "address",
          "name": "spender",
          "type": "address"
        },
        {
          "indexed": false,
          "internalType": "uint256",
          "name": "value",
          "type": "uint256"
        }
      ],
      "name": "Approval",
      "type": "event"
    },
    {
      "anonymous": false,
      "inputs": [
        {
          "indexed": true,
          "internalType": "address",
          "name": "player",
          "type": "address"
        },
        {
          "indexed": false,
          "internalType": "uint256",
          "name": "score",
          "type": "uint256"
        },
        {
          "indexed": false,
          "internalType": "string",
          "name": "genre",
          "type": "string"
        }
      ],
      "name": "GameCompleted",
      "type": "event"
    },
    {
      "anonymous": false,
      "inputs": [
        {
          "indexed": true,
          "internalType": "address",
          "name": "previousOwner",
          "type": "address"
        },
        {
          "indexed": true,
          "internalType": "address",
          "name": "newOwner",
          "type": "address"
        }
      ],
      "name": "OwnershipTransferred",
      "type": "event"
    },
    {
      "anonymous": false,
      "inputs": [
        {
          "indexed": true,
          "internalType": "address",
          "name": "player",
          "type": "address"
        },
        {
          "indexed": false,
          "internalType": "uint256",
          "name": "amount",
          "type": "uint256"
        },
        {
          "indexed": false,
          "internalType": "uint256",
          "name": "score",
          "type": "uint256"
        },
        {
          "indexed": false,
          "internalType": "string",
          "name": "genre",
          "type": "string"
        }
      ],
      "name": "TokensRewarded",
      "type": "event"
    },
    {
      "anonymous": false,
      "inputs": [
        {
          "indexed": true,
          "internalType": "address",
          "name": "from",
          "type": "address"
        },
        {
          "indexed": true,
          "internalType": "address",
          "name": "to",
          "type": "address"
        },
        {
          "indexed": false,
          "internalType": "uint256",
          "name": "value",
          "type": "uint256"
        }
      ],
      "name": "Transfer",
      "type": "event"
    },
    {
      "inputs": [
        {
          "internalType": "address",
          "name": "owner",
          "type": "address"
        },
        {
          "internalType": "address",
          "name": "spender",
          "type": "address"
        }
      ],
      "name": "allowance",
      "outputs": [
        {
          "internalType": "uint256",
          "name": "",
          "type": "uint256"
        }
      ],
      "stateMutability": "view",
      "type": "function"
    },
    {
      "inputs": [
        {
          "internalType": "address",
          "name": "spender",
          "type": "address"
        },
        {
          "internalType": "uint256",
          "name": "amount",
          "type": "uint256"
        }
      ],
      "name": "approve",
      "outputs": [
        {
          "internalType": "bool",
          "name": "",
          "type": "bool"
        }
      ],
      "stateMutability": "nonpayable",
      "type": "function"
    },
    {
      "inputs": [
        {
          "internalType": "address",
          "name": "account",
          "type": "address"
        }
      ],
      "name": "balanceOf",
      "outputs": [
        {
          "internalType": "uint256",
          "name": "",
          "type": "uint256"
        }
      ],
      "stateMutability": "view",
      "type": "function"
    },
    {
      "inputs": [],
      "name": "decimals",
      "outputs": [
        {
          "internalType": "uint8",
          "name": "",
          "type": "uint8"
        }
      ],
      "stateMutability": "view",
      "type": "function"
    },
    {
      "inputs": [
        {
          "internalType": "address",
          "name": "spender",
          "type": "address"
        },
        {
          "internalType": "uint256",
          "name": "subtractedValue",
          "type": "uint256"
        }
      ],
      "name": "decreaseAllowance",
      "outputs": [
        {
          "internalType": "bool",
          "name": "",
          "type": "bool"
        }
      ],
      "stateMutability": "nonpayable",
      "type": "function"
    },
    {
      "inputs": [
        {
          "internalType": "address",
          "name": "",
          "type": "address"
        }
      ],
      "name": "favoriteGenres",
      "outputs": [
        {
          "internalType": "string",
          "name": "",
          "type": "string"
        }
      ],
      "stateMutability": "view",
      "type": "function"
    },
    {
      "inputs": [],
      "name": "gamesPaused",
      "outputs": [
        {
          "internalType": "bool",
          "name": "",
          "type": "bool"
        }
      ],
      "stateMutability": "view",
      "type": "function"
    },
    {
      "inputs": [
        {
          "internalType": "address",
          "name": "",
          "type": "address"
        }
      ],
      "name": "gamesPlayed",
      "outputs": [
        {
          "internalType": "uint256",
          "name": "",
          "type": "uint256"
        }
      ],
      "stateMutability": "view",
      "type": "function"
    },
    {
      "inputs": [],
      "name": "getGlobalStats",
      "outputs": [
        {
          "internalType": "uint256",
          "name": "totalRewards",
          "type": "uint256"
        },
        {
          "internalType": "uint256",
          "name": "totalGames",
          "type": "uint256"
        },
        {
          "internalType": "uint256",
          "name": "totalSupply_",
          "type": "uint256"
        },
        {
          "internalType": "uint256",
          "name": "remainingSupply",
          "type": "uint256"
        }
      ],
      "stateMutability": "view",
      "type": "function"
    },
    {
      "inputs": [
        {
          "internalType": "address",
          "name": "player",
          "type": "address"
        }
      ],
      "name": "getPlayerStats",
      "outputs": [
        {
          "internalType": "uint256",
          "name": "totalScore",
          "type": "uint256"
        },
        {
          "internalType": "uint256",
          "name": "totalGames",
          "type": "uint256"
        },
        {
          "internalType": "string",
          "name": "favoriteGenre",
          "type": "string"
        },
        {
          "internalType": "uint256",
          "name": "tokenBalance",
          "type": "uint256"
        }
      ],
      "stateMutability": "view",
      "type": "function"
    },
    {
      "inputs": [
        {
          "internalType": "address",
          "name": "spender",
          "type": "address"
        },
        {
          "internalType": "uint256",
          "name": "addedValue",
          "type": "uint256"
        }
      ],
      "name": "increaseAllowance",
      "outputs": [
        {
          "internalType": "bool",
          "name": "",
          "type": "bool"
        }
      ],
      "stateMutability": "nonpayable",
      "type": "function"
    },
    {
      "inputs": [
        {
          "internalType": "address",
          "name": "to",
          "type": "address"
        },
        {
          "internalType": "uint256",
          "name": "amount",
          "type": "uint256"
        }
      ],
      "name": "mint",
      "outputs": [],
      "stateMutability": "nonpayable",
      "type": "function"
    },
    {
      "inputs": [],
      "name": "name",
      "outputs": [
        {
          "internalType": "string",
          "name": "",
          "type": "string"
        }
      ],
      "stateMutability": "view",
      "type": "function"
    },
    {
      "inputs": [],
      "name": "owner",
      "outputs": [
        {
          "internalType": "address",
          "name": "",
          "type": "address"
        }
      ],
      "stateMutability": "view",
      "type": "function"
    },
    {
      "inputs": [],
      "name": "pauseGames",
      "outputs": [],
      "stateMutability": "nonpayable",
      "type": "function"
    },
    {
      "inputs": [
        {
          "internalType": "address",
          "name": "",
          "type": "address"
        }
      ],
      "name": "playerScores",
      "outputs": [
        {
          "internalType": "uint256",
          "name": "",
          "type": "uint256"
        }
      ],
      "stateMutability": "view",
      "type": "function"
    },
    {
      "inputs": [],
      "name": "renounceOwnership",
      "outputs": [],
      "stateMutability": "nonpayable",
      "type": "function"
    },
    {
      "inputs": [
        {
          "internalType": "address",
          "name": "player",
          "type": "address"
        },
        {
          "internalType": "uint256",
          "name": "score",
          "type": "uint256"
        },
        {
          "internalType": "string",
          "name": "genre",
          "type": "string"
        }
      ],
      "name": "rewardPlayer",
      "outputs": [],
      "stateMutability": "nonpayable",
      "type": "function"
    },
    {
      "inputs": [
        {
          "internalType": "address",
          "name": "player",
          "type": "address"
        },
        {
          "internalType": "uint256",
          "name": "score",
          "type": "uint256"
        },
        {
          "internalType": "string",
          "name": "genre",
          "type": "string"
        }
      ],
      "name": "rewardPlayerWhenActive",
      "outputs": [],
      "stateMutability": "nonpayable",
      "type": "function"
    },
    {
      "inputs": [],
      "name": "symbol",
      "outputs": [
        {
          "internalType": "string",
          "name": "",
          "type": "string"
        }
      ],
      "stateMutability": "view",
      "type": "function"
    },
    {
      "inputs": [],
      "name": "totalGamesPlayed",
      "outputs": [
        {
          "internalType": "uint256",
          "name": "",
          "type": "uint256"
        }
      ],
      "stateMutability": "view",
      "type": "function"
    },
    {
      "inputs": [],
      "name": "totalSupply",
      "outputs": [
        {
          "internalType": "uint256",
          "name": "",
          "type": "uint256"
        }
      ],
      "stateMutability": "view",
      "type": "function"
    },
    {
      "inputs": [],
      "name": "totalTokensRewarded",
      "outputs": [
        {
          "internalType": "uint256",
          "name": "",
          "type": "uint256"
        }
      ],
      "stateMutability": "view",
      "type": "function"
    },
    {
      "inputs": [
        {
          "internalType": "address",
          "name": "to",
          "type": "address"
        },
        {
          "internalType": "uint256",
          "name": "amount",
          "type": "uint256"
        }
      ],
      "name": "transfer",
      "outputs": [
        {
          "internalType": "bool",
          "name": "",
          "type": "bool"
        }
      ],
      "stateMutability": "nonpayable",
      "type": "function"
    },
    {
      "inputs": [
        {
          "internalType": "address",
          "name": "from",
          "type": "address"
        },
        {
          "internalType": "address",
          "name": "to",
          "type": "address"
        },
        {
          "internalType": "uint256",
          "name": "amount",
          "type": "uint256"
        }
      ],
      "name": "transferFrom",
      "outputs": [
        {
          "internalType": "bool",
          "name": "",
          "type": "bool"
        }
      ],
      "stateMutability": "nonpayable",
      "type": "function"
    },
    {
      "inputs": [
        {
          "internalType": "address",
          "name": "newOwner",
          "type": "address"
        }
      ],
      "name": "transferOwnership",
      "outputs": [],
      "stateMutability": "nonpayable",
      "type": "function"
    },
    {
      "inputs": [],
      "name": "unpauseGames",
      "outputs": [],
      "stateMutability": "nonpayable",
      "type": "function"
    }
  ],
  "bytecode": "0x608060405234801561001057600080fd5b506040518060400160405280600d81526020017f4d757369634e6164546f6b656e000000000000000000000000000000000000008152506040518060400160405280600481526020017f4d4e414400000000000000000000000000000000000000000000000000000000815250816003908161008c91906105a1565b50806004908161009c91906105a1565b5050506100bb6100b061010e60201b60201c565b61011660201b60201c565b60016006819055506100d23361011660201b60201c565b610109336100e46101dc60201b60201c565b600a6100f091906107e2565b620f42406100fe919061082d565b6101e560201b60201c565b61094a565b600033905090565b6000600560009054906101000a900473ffffffffffffffffffffffffffffffffffffffff16905081600560006101000a81548173ffffffffffffffffffffffffffffffffffffffff021916908373ffffffffffffffffffffffffffffffffffffffff1602179055508173ffffffffffffffffffffffffffffffffffffffff168173ffffffffffffffffffffffffffffffffffffffff167f8be0079c531659141344cd1fd0a4f28419497f9722a3daafe3b4186f6b6457e060405160405180910390a35050565b60006012905090565b600073ffffffffffffffffffffffffffffffffffffffff168273ffffffffffffffffffffffffffffffffffffffff1603610254576040517f08c379a000000000000000000000000000000000000000000000000000000000815260040161024b906108cc565b60405180910390fd5b6102666000838361034760201b60201c565b806002600082825461027891906108ec565b92505081905550806000808473ffffffffffffffffffffffffffffffffffffffff1673ffffffffffffffffffffffffffffffffffffffff168152602001908152602001600020600082825401925050819055508173ffffffffffffffffffffffffffffffffffffffff16600073ffffffffffffffffffffffffffffffffffffffff167fddf252ad1be2c89b69c2b068fc378daa952ba7f163c4a11628f55a4df523b3ef83604051610329919061092f565b60405180910390a36103436000838361034c60201b60201c565b5050565b505050565b505050565b600081519050919050565b7f4e487b7100000000000000000000000000000000000000000000000000000000600052604160045260246000fd5b7f4e487b7100000000000000000000000000000000000000000000000000000000600052602260045260246000fd5b600060028204905060018216806103d257607f821691505b6020821081036103e5576103e461038b565b5b50919050565b60008190508160005260206000209050919050565b60006020601f8301049050919050565b600082821b905092915050565b60006008830261044d7fffffffffffffffffffffffffffffffffffffffffffffffffffffffffffffffff82610410565b6104578683610410565b95508019841693508086168417925050509392505050565b6000819050919050565b6000819050919050565b600061049e6104996104948461046f565b610479565b61046f565b9050919050565b6000819050919050565b6104b883610483565b6104cc6104c4826104a5565b84845461041d565b825550505050565b600090565b6104e16104d4565b6104ec8184846104af565b505050565b5b81811015610510576105056000826104d9565b6001810190506104f2565b5050565b601f82111561055557610526816103eb565b61052f84610400565b8101602085101561053e578190505b61055261054a85610400565b8301826104f1565b50505b505050565b600082821c905092915050565b60006105786000198460080261055a565b1980831691505092915050565b60006105918383610567565b9150826002028217905092915050565b6105aa82610351565b67ffffffffffffffff8111156105c3576105c261035c565b5b6105cd82546103ba565b6105d8828285610514565b600060209050601f83116001811461060b57600084156105f9578287015190505b6106038582610585565b86555061066b565b601f198416610619866103eb565b60005b828110156106415784890151825560018201915060208501945060208101905061061c565b8683101561065e578489015161065a601f891682610567565b8355505b6001600288020188555050505b505050505050565b7f4e487b7100000000000000000000000000000000000000000000000000000000600052601160045260246000fd5b60008160011c9050919050565b6000808291508390505b60018511156106f9578086048111156106d5576106d4610673565b5b60018516156106e45780820291505b80810290506106f2856106a2565b94506106b9565b94509492505050565b60008261071257600190506107ce565b8161072057600090506107ce565b816001811461073657600281146107405761076f565b60019150506107ce565b60ff84111561075257610751610673565b5b8360020a91508482111561076957610768610673565b5b506107ce565b5060208310610133831016604e8410600b84101617156107a45782820a90508381111561079f5761079e610673565b5b6107ce565b6107b184848460016106af565b925090508184048111156107c8576107c7610673565b5b81810290505b9392505050565b600060ff82169050919050565b60006107ed8261046f565b91506107f8836107d5565b92506108257fffffffffffffffffffffffffffffffffffffffffffffffffffffffffffffffff8484610702565b905092915050565b60006108388261046f565b91506108438361046f565b92508282026108518161046f565b9150828204841483151761086857610867610673565b5b5092915050565b600082825260208201905092915050565b7f45524332303a206d696e7420746f20746865207a65726f206164647265737300600082015250565b60006108b6601f8361086f565b91506108c182610880565b602082019050919050565b600060208201905081810360008301526108e5816108a9565b9050919050565b60006108f78261046f565b91506109028361046f565b925082820190508082111561091a57610919610673565b5b92915050565b6109298161046f565b82525050565b60006020820190506109446000830184610920565b92915050565b6129af806109596000396000f3fe608060405234801561001057600080fd5b50600436106101a95760003560e01c80636b4169c3116100f957806395d89b4111610097578063a457c2d711610071578063a457c2d7146104b4578063a9059cbb146104e4578063dd62ed3e14610514578063f2fde38b14610544576101a9565b806395d89b411461045c57806398c5b7ba1461047a578063a2f630ac14610484576101a9565b806370a08231116100d357806370a08231146103e8578063715018a6146104185780638da5cb5b14610422578063912e4b4e14610440576101a9565b80636b4169c31461038d5780636ff6b33b146103ae57806370180bc1146103b8576101a9565b8063395093511161016657806350271e021161014057806350271e02146103055780635c4921291461032157806362550ae11461033f578063663dcdbc1461036f576101a9565b8063395093511461028657806340c10f19146102b65780634fd66eae146102d2576101a9565b806306fdde03146101ae578063095ea7b3146101cc57806318160ddd146101fc57806323b872dd1461021a578063313ce5671461024a578063347e0fcf14610268575b600080fd5b6101b6610560565b6040516101c39190611815565b60405180910390f35b6101e660048036038101906101e191906118df565b6105f2565b6040516101f3919061193a565b60405180910390f35b610204610615565b6040516102119190611964565b60405180910390f35b610234600480360381019061022f919061197f565b61061f565b604051610241919061193a565b60405180910390f35b61025261064e565b60405161025f91906119ee565b60405180910390f35b610270610657565b60405161027d919061193a565b60405180910390f35b6102a0600480360381019061029b91906118df565b61066a565b6040516102ad919061193a565b60405180910390f35b6102d060048036038101906102cb91906118df565b6106a1565b005b6102ec60048036038101906102e79190611a09565b6106b7565b6040516102fc9493929190611a36565b60405180910390f35b61031f600480360381019061031a9190611bb7565b610821565b005b610329610b39565b6040516103369190611964565b60405180910390f35b61035960048036038101906103549190611a09565b610b3f565b6040516103669190611964565b60405180910390f35b610377610b57565b6040516103849190611964565b60405180910390f35b610395610b5d565b6040516103a59493929190611c26565b60405180910390f35b6103b6610b8f565b005b6103d260048036038101906103cd9190611a09565b610bb4565b6040516103df9190611964565b60405180910390f35b61040260048036038101906103fd9190611a09565b610bcc565b60405161040f9190611964565b60405180910390f35b610420610c14565b005b61042a610c28565b6040516104379190611c7a565b60405180910390f35b61045a60048036038101906104559190611bb7565b610c52565b005b610464610cba565b6040516104719190611815565b60405180910390f35b610482610d4c565b005b61049e60048036038101906104999190611a09565b610d71565b6040516104ab9190611815565b60405180910390f35b6104ce60048036038101906104c991906118df565b610e11565b6040516104db919061193a565b60405180910390f35b6104fe60048036038101906104f991906118df565b610e88565b60405161050b919061193a565b60405180910390f35b61052e60048036038101906105299190611c95565b610eab565b60405161053b9190611964565b60405180910390f35b61055e60048036038101906105599190611a09565b610f32565b005b60606003805461056f90611d04565b80601f016020809104026020016040519081016040528092919081815260200182805461059b90611d04565b80156105e85780601f106105bd576101008083540402835291602001916105e8565b820191906000526020600020905b8154815290600101906020018083116105cb57829003601f168201915b5050505050905090565b6000806105fd610fb5565b905061060a818585610fbd565b600191505092915050565b6000600254905090565b60008061062a610fb5565b9050610637858285611186565b610642858585611212565b60019150509392505050565b60006012905090565b600c60009054906101000a900460ff1681565b600080610675610fb5565b90506106968185856106878589610eab565b6106919190611d64565b610fbd565b600191505092915050565b6106a9611488565b6106b38282611506565b5050565b60008060606000600760008673ffffffffffffffffffffffffffffffffffffffff1673ffffffffffffffffffffffffffffffffffffffff16815260200190815260200160002054600860008773ffffffffffffffffffffffffffffffffffffffff1673ffffffffffffffffffffffffffffffffffffffff16815260200190815260200160002054600960008873ffffffffffffffffffffffffffffffffffffffff1673ffffffffffffffffffffffffffffffffffffffff16815260200190815260200160002061078688610bcc565b81805461079290611d04565b80601f01602080910402602001604051908101604052809291908181526020018280546107be90611d04565b801561080b5780601f106107e05761010080835404028352916020019161080b565b820191906000526020600020905b8154815290600101906020018083116107ee57829003601f168201915b5050505050915093509350935093509193509193565b610829611488565b61083161165c565b600073ffffffffffffffffffffffffffffffffffffffff168373ffffffffffffffffffffffffffffffffffffffff16036108a0576040517f08c379a000000000000000000000000000000000000000000000000000000000815260040161089790611de4565b60405180910390fd5b600082116108e3576040517f08c379a00000000000000000000000000000000000000000000000000000000081526004016108da90611e50565b60405180910390fd5b6000815111610927576040517f08c379a000000000000000000000000000000000000000000000000000000000815260040161091e90611ebc565b60405180910390fd5b600061093161064e565b600a61093d919061200f565b83610948919061205a565b905082600760008673ffffffffffffffffffffffffffffffffffffffff1673ffffffffffffffffffffffffffffffffffffffff16815260200190815260200160002060008282546109999190611d64565b925050819055506001600860008673ffffffffffffffffffffffffffffffffffffffff1673ffffffffffffffffffffffffffffffffffffffff16815260200190815260200160002060008282546109f09190611d64565b9250508190555081600960008673ffffffffffffffffffffffffffffffffffffffff1673ffffffffffffffffffffffffffffffffffffffff1681526020019081526020016000209081610a439190612248565b5080600a6000828254610a569190611d64565b925050819055506001600b6000828254610a709190611d64565b92505081905550610a89610a82610c28565b8583611212565b8373ffffffffffffffffffffffffffffffffffffffff167f30be20647ef48853811ef5192dbad5d3cc1500699f3633cf3f640b49364ab5cc828585604051610ad39392919061231a565b60405180910390a28373ffffffffffffffffffffffffffffffffffffffff167f0a03a0a36d860ddb2eae77045a684bf1a2c25f1b086850bb1ebab21d6b1e98f58484604051610b23929190612358565b60405180910390a250610b346116ab565b505050565b600b5481565b60076020528060005260406000206000915090505481565b600a5481565b600080600080600a54600b54610b71610615565b610b81610b7c610c28565b610bcc565b935093509350935090919293565b610b97611488565b6001600c60006101000a81548160ff021916908315150217905550565b60086020528060005260406000206000915090505481565b60008060008373ffffffffffffffffffffffffffffffffffffffff1673ffffffffffffffffffffffffffffffffffffffff168152602001908152602001600020549050919050565b610c1c611488565b610c2660006116b5565b565b6000600560009054906101000a900473ffffffffffffffffffffffffffffffffffffffff16905090565b610c5a611488565b600c60009054906101000a900460ff1615610caa576040517f08c379a0000000000000000000000000000000000000000000000000000000008152600401610ca1906123d4565b60405180910390fd5b610cb5838383610821565b505050565b606060048054610cc990611d04565b80601f0160208091040260200160405190810160405280929190818152602001828054610cf590611d04565b8015610d425780601f10610d1757610100808354040283529160200191610d42565b820191906000526020600020905b815481529060010190602001808311610d2557829003601f168201915b5050505050905090565b610d54611488565b6000600c60006101000a81548160ff021916908315150217905550565b60096020528060005260406000206000915090508054610d9090611d04565b80601f0160208091040260200160405190810160405280929190818152602001828054610dbc90611d04565b8015610e095780601f10610dde57610100808354040283529160200191610e09565b820191906000526020600020905b815481529060010190602001808311610dec57829003601f168201915b505050505081565b600080610e1c610fb5565b90506000610e2a8286610eab565b905083811015610e6f576040517f08c379a0000000000000000000000000000000000000000000000000000000008152600401610e6690612466565b60405180910390fd5b610e7c8286868403610fbd565b60019250505092915050565b600080610e93610fb5565b9050610ea0818585611212565b600191505092915050565b6000600160008473ffffffffffffffffffffffffffffffffffffffff1673ffffffffffffffffffffffffffffffffffffffff16815260200190815260200160002060008373ffffffffffffffffffffffffffffffffffffffff1673ffffffffffffffffffffffffffffffffffffffff16815260200190815260200160002054905092915050565b610f3a611488565b600073ffffffffffffffffffffffffffffffffffffffff168173ffffffffffffffffffffffffffffffffffffffff1603610fa9576040517f08c379a0000000000000000000000000000000000000000000000000000000008152600401610fa0906124f8565b60405180910390fd5b610fb2816116b5565b50565b600033905090565b600073ffffffffffffffffffffffffffffffffffffffff168373ffffffffffffffffffffffffffffffffffffffff160361102c576040517f08c379a00000000000000000000000000000000000000000000000000000000081526004016110239061258a565b60405180910390fd5b600073ffffffffffffffffffffffffffffffffffffffff168273ffffffffffffffffffffffffffffffffffffffff160361109b576040517f08c379a00000000000000000000000000000000000000000000000000000000081526004016110929061261c565b60405180910390fd5b80600160008573ffffffffffffffffffffffffffffffffffffffff1673ffffffffffffffffffffffffffffffffffffffff16815260200190815260200160002060008473ffffffffffffffffffffffffffffffffffffffff1673ffffffffffffffffffffffffffffffffffffffff168152602001908152602001600020819055508173ffffffffffffffffffffffffffffffffffffffff168373ffffffffffffffffffffffffffffffffffffffff167f8c5be1e5ebec7d5bd14f71427d1e84f3dd0314c0f7b2291e5b200ac8c7c3b925836040516111799190611964565b60405180910390a3505050565b60006111928484610eab565b90507fffffffffffffffffffffffffffffffffffffffffffffffffffffffffffffffff811461120c57818110156111fe576040517f08c379a00000000000000000000000000000000000000000000000000000000081526004016111f590612688565b60405180910390fd5b61120b8484848403610fbd565b5b50505050565b600073ffffffffffffffffffffffffffffffffffffffff168373ffffffffffffffffffffffffffffffffffffffff1603611281576040517f08c379a00000000000000000000000000000000000000000000000000000000081526004016112789061271a565b60405180910390fd5b600073ffffffffffffffffffffffffffffffffffffffff168273ffffffffffffffffffffffffffffffffffffffff16036112f0576040517f08c379a00000000000000000000000000000000000000000000000000000000081526004016112e7906127ac565b60405180910390fd5b6112fb83838361177b565b60008060008573ffffffffffffffffffffffffffffffffffffffff1673ffffffffffffffffffffffffffffffffffffffff16815260200190815260200160002054905081811015611381576040517f08c379a00000000000000000000000000000000000000000000000000000000081526004016113789061283e565b60405180910390fd5b8181036000808673ffffffffffffffffffffffffffffffffffffffff1673ffffffffffffffffffffffffffffffffffffffff16815260200190815260200160002081905550816000808573ffffffffffffffffffffffffffffffffffffffff1673ffffffffffffffffffffffffffffffffffffffff168152602001908152602001600020600082825401925050819055508273ffffffffffffffffffffffffffffffffffffffff168473ffffffffffffffffffffffffffffffffffffffff167fddf252ad1be2c89b69c2b068fc378daa952ba7f163c4a11628f55a4df523b3ef8460405161146f9190611964565b60405180910390a3611482848484611780565b50505050565b611490610fb5565b73ffffffffffffffffffffffffffffffffffffffff166114ae610c28565b73ffffffffffffffffffffffffffffffffffffffff1614611504576040517f08c379a00000000000000000000000000000000000000000000000000000000081526004016114fb906128aa565b60405180910390fd5b565b600073ffffffffffffffffffffffffffffffffffffffff168273ffffffffffffffffffffffffffffffffffffffff1603611575576040517f08c379a000000000000000000000000000000000000000000000000000000000815260040161156c90612916565b60405180910390fd5b6115816000838361177b565b80600260008282546115939190611d64565b92505081905550806000808473ffffffffffffffffffffffffffffffffffffffff1673ffffffffffffffffffffffffffffffffffffffff168152602001908152602001600020600082825401925050819055508173ffffffffffffffffffffffffffffffffffffffff16600073ffffffffffffffffffffffffffffffffffffffff167fddf252ad1be2c89b69c2b068fc378daa952ba7f163c4a11628f55a4df523b3ef836040516116449190611964565b60405180910390a361165860008383611780565b5050565b6002600654036116a1576040517f08c379a000000000000000000000000000000000000000000000000000000000815260040161169890612982565b60405180910390fd5b6002600681905550565b6001600681905550565b6000600560009054906101000a900473ffffffffffffffffffffffffffffffffffffffff16905081600560006101000a81548173ffffffffffffffffffffffffffffffffffffffff021916908373ffffffffffffffffffffffffffffffffffffffff1602179055508173ffffffffffffffffffffffffffffffffffffffff168173ffffffffffffffffffffffffffffffffffffffff167f8be0079c531659141344cd1fd0a4f28419497f9722a3daafe3b4186f6b6457e060405160405180910390a35050565b505050565b505050565b600081519050919050565b600082825260208201905092915050565b60005b838110156117bf5780820151818401526020810190506117a4565b60008484015250505050565b6000601f19601f8301169050919050565b60006117e782611785565b6117f18185611790565b93506118018185602086016117a1565b61180a816117cb565b840191505092915050565b6000602082019050818103600083015261182f81846117dc565b905092915050565b6000604051905090565b600080fd5b600080fd5b600073ffffffffffffffffffffffffffffffffffffffff82169050919050565b60006118768261184b565b9050919050565b6118868161186b565b811461189157600080fd5b50565b6000813590506118a38161187d565b92915050565b6000819050919050565b6118bc816118a9565b81146118c757600080fd5b50565b6000813590506118d9816118b3565b92915050565b600080604083850312156118f6576118f5611841565b5b600061190485828601611894565b9250506020611915858286016118ca565b9150509250929050565b60008115159050919050565b6119348161191f565b82525050565b600060208201905061194f600083018461192b565b92915050565b61195e816118a9565b82525050565b60006020820190506119796000830184611955565b92915050565b60008060006060848603121561199857611997611841565b5b60006119a686828701611894565b93505060206119b786828701611894565b92505060406119c8868287016118ca565b9150509250925092565b600060ff82169050919050565b6119e8816119d2565b82525050565b6000602082019050611a0360008301846119df565b92915050565b600060208284031215611a1f57611a1e611841565b5b6000611a2d84828501611894565b91505092915050565b6000608082019050611a4b6000830187611955565b611a586020830186611955565b8181036040830152611a6a81856117dc565b9050611a796060830184611955565b95945050505050565b600080fd5b600080fd5b7f4e487b7100000000000000000000000000000000000000000000000000000000600052604160045260246000fd5b611ac4826117cb565b810181811067ffffffffffffffff82111715611ae357611ae2611a8c565b5b80604052505050565b6000611af6611837565b9050611b028282611abb565b919050565b600067ffffffffffffffff821115611b2257611b21611a8c565b5b611b2b826117cb565b9050602081019050919050565b82818337600083830152505050565b6000611b5a611b5584611b07565b611aec565b905082815260208101848484011115611b7657611b75611a87565b5b611b81848285611b38565b509392505050565b600082601f830112611b9e57611b9d611a82565b5b8135611bae848260208601611b47565b91505092915050565b600080600060608486031215611bd057611bcf611841565b5b6000611bde86828701611894565b9350506020611bef868287016118ca565b925050604084013567ffffffffffffffff811115611c1057611c0f611846565b5b611c1c86828701611b89565b9150509250925092565b6000608082019050611c3b6000830187611955565b611c486020830186611955565b611c556040830185611955565b611c626060830184611955565b95945050505050565b611c748161186b565b82525050565b6000602082019050611c8f6000830184611c6b565b92915050565b60008060408385031215611cac57611cab611841565b5b6000611cba85828601611894565b9250506020611ccb85828601611894565b9150509250929050565b7f4e487b7100000000000000000000000000000000000000000000000000000000600052602260045260246000fd5b60006002820490506001821680611d1c57607f821691505b602082108103611d2f57611d2e611cd5565b5b50919050565b7f4e487b7100000000000000000000000000000000000000000000000000000000600052601160045260246000fd5b6000611d6f826118a9565b9150611d7a836118a9565b9250828201905080821115611d9257611d91611d35565b5b92915050565b7f496e76616c696420706c61796572206164647265737300000000000000000000600082015250565b6000611dce601683611790565b9150611dd982611d98565b602082019050919050565b60006020820190508181036000830152611dfd81611dc1565b9050919050565b7f53636f7265206d75737420626520706f73697469766500000000000000000000600082015250565b6000611e3a601683611790565b9150611e4582611e04565b602082019050919050565b60006020820190508181036000830152611e6981611e2d565b9050919050565b7f47656e7265207265717569726564000000000000000000000000000000000000600082015250565b6000611ea6600e83611790565b9150611eb182611e70565b602082019050919050565b60006020820190508181036000830152611ed581611e99565b9050919050565b60008160011c9050919050565b6000808291508390505b6001851115611f3357808604811115611f0f57611f0e611d35565b5b6001851615611f1e5780820291505b8081029050611f2c85611edc565b9450611ef3565b94509492505050565b600082611f4c5760019050612008565b81611f5a5760009050612008565b8160018114611f705760028114611f7a57611fa9565b6001915050612008565b60ff841115611f8c57611f8b611d35565b5b8360020a915084821115611fa357611fa2611d35565b5b50612008565b5060208310610133831016604e8410600b8410161715611fde5782820a905083811115611fd957611fd8611d35565b5b612008565b611feb8484846001611ee9565b9250905081840481111561200257612001611d35565b5b81810290505b9392505050565b600061201a826118a9565b9150612025836119d2565b92506120527fffffffffffffffffffffffffffffffffffffffffffffffffffffffffffffffff8484611f3c565b905092915050565b6000612065826118a9565b9150612070836118a9565b925082820261207e816118a9565b9150828204841483151761209557612094611d35565b5b5092915050565b60008190508160005260206000209050919050565b60006020601f8301049050919050565b600082821b905092915050565b6000600883026120fe7fffffffffffffffffffffffffffffffffffffffffffffffffffffffffffffffff826120c1565b61210886836120c1565b95508019841693508086168417925050509392505050565b6000819050919050565b600061214561214061213b846118a9565b612120565b6118a9565b9050919050565b6000819050919050565b61215f8361212a565b61217361216b8261214c565b8484546120ce565b825550505050565b600090565b61218861217b565b612193818484612156565b505050565b5b818110156121b7576121ac600082612180565b600181019050612199565b5050565b601f8211156121fc576121cd8161209c565b6121d6846120b1565b810160208510156121e5578190505b6121f96121f1856120b1565b830182612198565b50505b505050565b600082821c905092915050565b600061221f60001984600802612201565b1980831691505092915050565b6000612238838361220e565b9150826002028217905092915050565b61225182611785565b67ffffffffffffffff81111561226a57612269611a8c565b5b6122748254611d04565b61227f8282856121bb565b600060209050601f8311600181146122b257600084156122a0578287015190505b6122aa858261222c565b865550612312565b601f1984166122c08661209c565b60005b828110156122e8578489015182556001820191506020850194506020810190506122c3565b868310156123055784890151612301601f89168261220e565b8355505b6001600288020188555050505b505050505050565b600060608201905061232f6000830186611955565b61233c6020830185611955565b818103604083015261234e81846117dc565b9050949350505050565b600060408201905061236d6000830185611955565b818103602083015261237f81846117dc565b90509392505050565b7f47616d6573206172652070617573656400000000000000000000000000000000600082015250565b60006123be601083611790565b91506123c982612388565b602082019050919050565b600060208201905081810360008301526123ed816123b1565b9050919050565b7f45524332303a2064656372656173656420616c6c6f77616e63652062656c6f7760008201527f207a65726f000000000000000000000000000000000000000000000000000000602082015250565b6000612450602583611790565b915061245b826123f4565b604082019050919050565b6000602082019050818103600083015261247f81612443565b9050919050565b7f4f776e61626c653a206e6577206f776e657220697320746865207a65726f206160008201527f6464726573730000000000000000000000000000000000000000000000000000602082015250565b60006124e2602683611790565b91506124ed82612486565b604082019050919050565b60006020820190508181036000830152612511816124d5565b9050919050565b7f45524332303a20617070726f76652066726f6d20746865207a65726f2061646460008201527f7265737300000000000000000000000000000000000000000000000000000000602082015250565b6000612574602483611790565b915061257f82612518565b604082019050919050565b600060208201905081810360008301526125a381612567565b9050919050565b7f45524332303a20617070726f766520746f20746865207a65726f20616464726560008201527f7373000000000000000000000000000000000000000000000000000000000000602082015250565b6000612606602283611790565b9150612611826125aa565b604082019050919050565b60006020820190508181036000830152612635816125f9565b9050919050565b7f45524332303a20696e73756666696369656e7420616c6c6f77616e6365000000600082015250565b6000612672601d83611790565b915061267d8261263c565b602082019050919050565b600060208201905081810360008301526126a181612665565b9050919050565b7f45524332303a207472616e736665722066726f6d20746865207a65726f20616460008201527f6472657373000000000000000000000000000000000000000000000000000000602082015250565b6000612704602583611790565b915061270f826126a8565b604082019050919050565b60006020820190508181036000830152612733816126f7565b9050919050565b7f45524332303a207472616e7366657220746f20746865207a65726f206164647260008201527f6573730000000000000000000000000000000000000000000000000000000000602082015250565b6000612796602383611790565b91506127a18261273a565b604082019050919050565b600060208201905081810360008301526127c581612789565b9050919050565b7f45524332303a207472616e7366657220616d6f756e742065786365656473206260008201527f616c616e63650000000000000000000000000000000000000000000000000000602082015250565b6000612828602683611790565b9150612833826127cc565b604082019050919050565b600060208201905081810360008301526128578161281b565b9050919050565b7f4f776e61626c653a2063616c6c6572206973206e6f7420746865206f776e6572600082015250565b6000612894602083611790565b915061289f8261285e565b602082019050919050565b600060208201905081810360008301526128c381612887565b9050919050565b7f45524332303a206d696e7420746f20746865207a65726f206164647265737300600082015250565b6000612900601f83611790565b915061290b826128ca565b602082019050919050565b6000602082019050818103600083015261292f816128f3565b9050919050565b7f5265656e7472616e637947756172643a207265656e7472616e742063616c6c00600082015250565b600061296c601f83611790565b915061297782612936565b602082019050919050565b6000602082019050818103600083015261299b8161295f565b905091905056fea164736f6c634300081c000a",
  "linkReferences": {},
  "deployedLinkReferences": {}
}