{
  "_format": "hh-sol-artifact-1",
  "contractName": "MusicNadGame",
  "sourceName": "contracts/MusicNadToken.sol",
  "abi": [
    {
      "inputs": [],
      "stateMutability": "nonpayable",
      "type": "constructor"
    },
    {
      "anonymous": false,
      "inputs": [
        {
          "indexed": true,
          "internalType": "address",
          "name": "sender",
          "type": "address"
        },
        {
          "indexed": false,
          "internalType": "uint256",
          "name": "amount",
          "type": "uint256"
        }
      ],
      "name": "FundsDeposited",
      "type": "event"
    },
    {
      "anonymous": false,
      "inputs": [
        {
          "indexed": true,
          "internalType": "address",
          "name": "owner",
          "type": "address"
        },
        {
          "indexed": false,
          "internalType": "uint256",
          "name": "amount",
          "type": "uint256"
        }
      ],
      "name": "FundsWithdrawn",
      "type": "event"
    },
    {
      "anonymous": false,
      "inputs": [
        {
          "indexed": true,
          "internalType": "address",
          "name": "player",
          "type": "address"
        },
        {
          "indexed": false,
          "internalType": "uint256",
          "name": "score",
          "type": "uint256"
        },
        {
          "indexed": false,
          "internalType": "string",
          "name": "genre",
          "type": "string"
        }
      ],
      "name": "GameCompleted",
      "type": "event"
    },
    {
      "anonymous": false,
      "inputs": [
        {
          "indexed": true,
          "internalType": "address",
          "name": "previousOwner",
          "type": "address"
        },
        {
          "indexed": true,
          "internalType": "address",
          "name": "newOwner",
          "type": "address"
        }
      ],
      "name": "OwnershipTransferred",
      "type": "event"
    },
    {
      "anonymous": false,
      "inputs": [
        {
          "indexed": true,
          "internalType": "address",
          "name": "player",
          "type": "address"
        },
        {
          "indexed": false,
          "internalType": "uint256",
          "name": "amount",
          "type": "uint256"
        }
      ],
      "name": "RewardClaimed",
      "type": "event"
    },
    {
      "anonymous": false,
      "inputs": [
        {
          "indexed": true,
          "internalType": "address",
          "name": "player",
          "type": "address"
        },
        {
          "indexed": false,
          "internalType": "uint256",
          "name": "amount",
          "type": "uint256"
        },
        {
          "indexed": false,
          "internalType": "uint256",
          "name": "score",
          "type": "uint256"
        },
        {
          "indexed": false,
          "internalType": "string",
          "name": "genre",
          "type": "string"
        }
      ],
      "name": "TokensRewarded",
      "type": "event"
    },
    {
      "inputs": [],
      "name": "claimReward",
      "outputs": [],
      "stateMutability": "nonpayable",
      "type": "function"
    },
    {
      "inputs": [],
      "name": "depositFunds",
      "outputs": [],
      "stateMutability": "payable",
      "type": "function"
    },
    {
      "inputs": [
        {
          "internalType": "address",
          "name": "",
          "type": "address"
        }
      ],
      "name": "favoriteGenres",
      "outputs": [
        {
          "internalType": "string",
          "name": "",
          "type": "string"
        }
      ],
      "stateMutability": "view",
      "type": "function"
    },
    {
      "inputs": [],
      "name": "gamesPaused",
      "outputs": [
        {
          "internalType": "bool",
          "name": "",
          "type": "bool"
        }
      ],
      "stateMutability": "view",
      "type": "function"
    },
    {
      "inputs": [
        {
          "internalType": "address",
          "name": "",
          "type": "address"
        }
      ],
      "name": "gamesPlayed",
      "outputs": [
        {
          "internalType": "uint256",
          "name": "",
          "type": "uint256"
        }
      ],
      "stateMutability": "view",
      "type": "function"
    },
    {
      "inputs": [],
      "name": "getContractBalance",
      "outputs": [
        {
          "internalType": "uint256",
          "name": "",
          "type": "uint256"
        }
      ],
      "stateMutability": "view",
      "type": "function"
    },
    {
      "inputs": [],
      "name": "getGlobalStats",
      "outputs": [
        {
          "internalType": "uint256",
          "name": "totalRewards",
          "type": "uint256"
        },
        {
          "internalType": "uint256",
          "name": "totalGames",
          "type": "uint256"
        },
        {
          "internalType": "uint256",
          "name": "contractBalance",
          "type": "uint256"
        },
        {
          "internalType": "uint256",
          "name": "ownerBalance",
          "type": "uint256"
        }
      ],
      "stateMutability": "view",
      "type": "function"
    },
    {
      "inputs": [
        {
          "internalType": "address",
          "name": "player",
          "type": "address"
        }
      ],
      "name": "getPendingRewards",
      "outputs": [
        {
          "internalType": "uint256",
          "name": "",
          "type": "uint256"
        }
      ],
      "stateMutability": "view",
      "type": "function"
    },
    {
      "inputs": [
        {
          "internalType": "address",
          "name": "player",
          "type": "address"
        }
      ],
      "name": "getPlayerStats",
      "outputs": [
        {
          "internalType": "uint256",
          "name": "totalScore",
          "type": "uint256"
        },
        {
          "internalType": "uint256",
          "name": "totalGames",
          "type": "uint256"
        },
        {
          "internalType": "string",
          "name": "favoriteGenre",
          "type": "string"
        },
        {
          "internalType": "uint256",
          "name": "monBalance",
          "type": "uint256"
        },
        {
          "internalType": "uint256",
          "name": "pendingReward",
          "type": "uint256"
        }
      ],
      "stateMutability": "view",
      "type": "function"
    },
    {
      "inputs": [],
      "name": "owner",
      "outputs": [
        {
          "internalType": "address",
          "name": "",
          "type": "address"
        }
      ],
      "stateMutability": "view",
      "type": "function"
    },
    {
      "inputs": [],
      "name": "pauseGames",
      "outputs": [],
      "stateMutability": "nonpayable",
      "type": "function"
    },
    {
      "inputs": [
        {
          "internalType": "address",
          "name": "",
          "type": "address"
        }
      ],
      "name": "pendingRewards",
      "outputs": [
        {
          "internalType": "uint256",
          "name": "",
          "type": "uint256"
        }
      ],
      "stateMutability": "view",
      "type": "function"
    },
    {
      "inputs": [
        {
          "internalType": "address",
          "name": "",
          "type": "address"
        }
      ],
      "name": "playerScores",
      "outputs": [
        {
          "internalType": "uint256",
          "name": "",
          "type": "uint256"
        }
      ],
      "stateMutability": "view",
      "type": "function"
    },
    {
      "inputs": [],
      "name": "renounceOwnership",
      "outputs": [],
      "stateMutability": "nonpayable",
      "type": "function"
    },
    {
      "inputs": [
        {
          "internalType": "address",
          "name": "player",
          "type": "address"
        },
        {
          "internalType": "uint256",
          "name": "score",
          "type": "uint256"
        },
        {
          "internalType": "string",
          "name": "genre",
          "type": "string"
        }
      ],
      "name": "rewardPlayer",
      "outputs": [],
      "stateMutability": "nonpayable",
      "type": "function"
    },
    {
      "inputs": [
        {
          "internalType": "address",
          "name": "player",
          "type": "address"
        },
        {
          "internalType": "uint256",
          "name": "score",
          "type": "uint256"
        },
        {
          "internalType": "string",
          "name": "genre",
          "type": "string"
        }
      ],
      "name": "rewardPlayerWhenActive",
      "outputs": [],
      "stateMutability": "nonpayable",
      "type": "function"
    },
    {
      "inputs": [
        {
          "internalType": "uint256",
          "name": "score",
          "type": "uint256"
        },
        {
          "internalType": "string",
          "name": "genre",
          "type": "string"
        }
      ],
      "name": "submitGameResult",
      "outputs": [],
      "stateMutability": "nonpayable",
      "type": "function"
    },
    {
      "inputs": [],
      "name": "totalGamesPlayed",
      "outputs": [
        {
          "internalType": "uint256",
          "name": "",
          "type": "uint256"
        }
      ],
      "stateMutability": "view",
      "type": "function"
    },
    {
      "inputs": [],
      "name": "totalTokensRewarded",
      "outputs": [
        {
          "internalType": "uint256",
          "name": "",
          "type": "uint256"
        }
      ],
      "stateMutability": "view",
      "type": "function"
    },
    {
      "inputs": [
        {
          "internalType": "address",
          "name": "newOwner",
          "type": "address"
        }
      ],
      "name": "transferOwnership",
      "outputs": [],
      "stateMutability": "nonpayable",
      "type": "function"
    },
    {
      "inputs": [],
      "name": "unpauseGames",
      "outputs": [],
      "stateMutability": "nonpayable",
      "type": "function"
    },
    {
      "inputs": [],
      "name": "withdrawAllFunds",
      "outputs": [],
      "stateMutability": "nonpayable",
      "type": "function"
    },
    {
      "inputs": [
        {
          "internalType": "uint256",
          "name": "amount",
          "type": "uint256"
        }
      ],
      "name": "withdrawFunds",
      "outputs": [],
      "stateMutability": "nonpayable",
      "type": "function"
    },
    {
      "stateMutability": "payable",
      "type": "receive"
    }
  ],
  "bytecode": "0x608060405234801561001057600080fd5b5061002d61002261004860201b60201c565b61005060201b60201c565b600180819055506100433361005060201b60201c565b610114565b600033905090565b60008060009054906101000a900473ffffffffffffffffffffffffffffffffffffffff169050816000806101000a81548173ffffffffffffffffffffffffffffffffffffffff021916908373ffffffffffffffffffffffffffffffffffffffff1602179055508173ffffffffffffffffffffffffffffffffffffffff168173ffffffffffffffffffffffffffffffffffffffff167f8be0079c531659141344cd1fd0a4f28419497f9722a3daafe3b4186f6b6457e060405160405180910390a35050565b612995806101236000396000f3fe6080604052600436106101445760003560e01c80636f9fb98a116100b657806398c5b7ba1161006f57806398c5b7ba14610484578063a2f630ac1461049b578063b88a802f146104d8578063e2c41dbc146104ef578063f2fde38b146104f9578063f6ed20171461052257610199565b80636f9fb98a1461039a5780636ff6b33b146103c557806370180bc1146103dc578063715018a6146104195780638da5cb5b14610430578063912e4b4e1461045b57610199565b806350271e021161010857806350271e02146102875780635c492129146102b05780635c93bfab146102db57806362550ae114610304578063663dcdbc146103415780636b4169c31461036c57610199565b8063155dd5ee1461019e57806331d7a262146101c7578063347e0fcf1461020457806349649fbf1461022f5780634fd66eae1461024657610199565b36610199573373ffffffffffffffffffffffffffffffffffffffff167f543ba50a5eec5e6178218e364b1d0f396157b3c8fa278522c2cb7fd99407d4743460405161018f9190611919565b60405180910390a2005b600080fd5b3480156101aa57600080fd5b506101c560048036038101906101c09190611974565b61055f565b005b3480156101d357600080fd5b506101ee60048036038101906101e991906119ff565b6106c6565b6040516101fb9190611919565b60405180910390f35b34801561021057600080fd5b506102196106de565b6040516102269190611a47565b60405180910390f35b34801561023b57600080fd5b506102446106f1565b005b34801561025257600080fd5b5061026d600480360381019061026891906119ff565b61085d565b60405161027e959493929190611af2565b60405180910390f35b34801561029357600080fd5b506102ae60048036038101906102a99190611c81565b610a1b565b005b3480156102bc57600080fd5b506102c5610e12565b6040516102d29190611919565b60405180910390f35b3480156102e757600080fd5b5061030260048036038101906102fd9190611cf0565b610e18565b005b34801561031057600080fd5b5061032b600480360381019061032691906119ff565b611169565b6040516103389190611919565b60405180910390f35b34801561034d57600080fd5b50610356611181565b6040516103639190611919565b60405180910390f35b34801561037857600080fd5b50610381611187565b6040516103919493929190611d4c565b60405180910390f35b3480156103a657600080fd5b506103af6111c1565b6040516103bc9190611919565b60405180910390f35b3480156103d157600080fd5b506103da6111c9565b005b3480156103e857600080fd5b5061040360048036038101906103fe91906119ff565b6111ee565b6040516104109190611919565b60405180910390f35b34801561042557600080fd5b5061042e611206565b005b34801561043c57600080fd5b5061044561121a565b6040516104529190611da0565b60405180910390f35b34801561046757600080fd5b50610482600480360381019061047d9190611c81565b611243565b005b34801561049057600080fd5b506104996112ab565b005b3480156104a757600080fd5b506104c260048036038101906104bd91906119ff565b6112d0565b6040516104cf9190611dbb565b60405180910390f35b3480156104e457600080fd5b506104ed611370565b005b6104f76115f7565b005b34801561050557600080fd5b50610520600480360381019061051b91906119ff565b611692565b005b34801561052e57600080fd5b50610549600480360381019061054491906119ff565b611715565b6040516105569190611919565b60405180910390f35b61056761175e565b61056f6117dc565b478111156105b2576040517f08c379a00000000000000000000000000000000000000000000000000000000081526004016105a990611e29565b60405180910390fd5b60006105bc61121a565b73ffffffffffffffffffffffffffffffffffffffff16826040516105df90611e7a565b60006040518083038185875af1925050503d806000811461061c576040519150601f19603f3d011682016040523d82523d6000602084013e610621565b606091505b5050905080610665576040517f08c379a000000000000000000000000000000000000000000000000000000000815260040161065c90611edb565b60405180910390fd5b61066d61121a565b73ffffffffffffffffffffffffffffffffffffffff167feaff4b37086828766ad3268786972c0cd24259d4c87a80f9d3963a3c3d999b0d836040516106b29190611919565b60405180910390a2506106c361182b565b50565b60056020528060005260406000206000915090505481565b600860009054906101000a900460ff1681565b6106f961175e565b6107016117dc565b600047905060008111610749576040517f08c379a000000000000000000000000000000000000000000000000000000000815260040161074090611f47565b60405180910390fd5b600061075361121a565b73ffffffffffffffffffffffffffffffffffffffff168260405161077690611e7a565b60006040518083038185875af1925050503d80600081146107b3576040519150601f19603f3d011682016040523d82523d6000602084013e6107b8565b606091505b50509050806107fc576040517f08c379a00000000000000000000000000000000000000000000000000000000081526004016107f390611edb565b60405180910390fd5b61080461121a565b73ffffffffffffffffffffffffffffffffffffffff167feaff4b37086828766ad3268786972c0cd24259d4c87a80f9d3963a3c3d999b0d836040516108499190611919565b60405180910390a2505061085b61182b565b565b6000806060600080600260008773ffffffffffffffffffffffffffffffffffffffff1673ffffffffffffffffffffffffffffffffffffffff16815260200190815260200160002054600360008873ffffffffffffffffffffffffffffffffffffffff1673ffffffffffffffffffffffffffffffffffffffff16815260200190815260200160002054600460008973ffffffffffffffffffffffffffffffffffffffff1673ffffffffffffffffffffffffffffffffffffffff1681526020019081526020016000208873ffffffffffffffffffffffffffffffffffffffff1631600560008b73ffffffffffffffffffffffffffffffffffffffff1673ffffffffffffffffffffffffffffffffffffffff1681526020019081526020016000205482805461098890611f96565b80601f01602080910402602001604051908101604052809291908181526020018280546109b490611f96565b8015610a015780601f106109d657610100808354040283529160200191610a01565b820191906000526020600020905b8154815290600101906020018083116109e457829003601f168201915b505050505092509450945094509450945091939590929450565b610a2361175e565b610a2b6117dc565b600073ffffffffffffffffffffffffffffffffffffffff168373ffffffffffffffffffffffffffffffffffffffff1603610a9a576040517f08c379a0000000000000000000000000000000000000000000000000000000008152600401610a9190612013565b60405180910390fd5b60008211610add576040517f08c379a0000000000000000000000000000000000000000000000000000000008152600401610ad49061207f565b60405180910390fd5b6000815111610b21576040517f08c379a0000000000000000000000000000000000000000000000000000000008152600401610b18906120eb565b60405180910390fd5b6000600a670de0b6b3a764000084610b39919061213a565b610b4391906121ab565b905080471015610b88576040517f08c379a0000000000000000000000000000000000000000000000000000000008152600401610b7f90612228565b60405180910390fd5b82600260008673ffffffffffffffffffffffffffffffffffffffff1673ffffffffffffffffffffffffffffffffffffffff1681526020019081526020016000206000828254610bd79190612248565b925050819055506001600360008673ffffffffffffffffffffffffffffffffffffffff1673ffffffffffffffffffffffffffffffffffffffff1681526020019081526020016000206000828254610c2e9190612248565b9250508190555081600460008673ffffffffffffffffffffffffffffffffffffffff1673ffffffffffffffffffffffffffffffffffffffff1681526020019081526020016000209081610c819190612428565b508060066000828254610c949190612248565b92505081905550600160076000828254610cae9190612248565b9250508190555060008473ffffffffffffffffffffffffffffffffffffffff1682604051610cdb90611e7a565b60006040518083038185875af1925050503d8060008114610d18576040519150601f19603f3d011682016040523d82523d6000602084013e610d1d565b606091505b5050905080610d61576040517f08c379a0000000000000000000000000000000000000000000000000000000008152600401610d5890612546565b60405180910390fd5b8473ffffffffffffffffffffffffffffffffffffffff167f30be20647ef48853811ef5192dbad5d3cc1500699f3633cf3f640b49364ab5cc838686604051610dab93929190612566565b60405180910390a28473ffffffffffffffffffffffffffffffffffffffff167f0a03a0a36d860ddb2eae77045a684bf1a2c25f1b086850bb1ebab21d6b1e98f58585604051610dfb9291906125a4565b60405180910390a25050610e0d61182b565b505050565b60075481565b610e206117dc565b600860009054906101000a900460ff1615610e70576040517f08c379a0000000000000000000000000000000000000000000000000000000008152600401610e6790612620565b60405180910390fd5b60008211610eb3576040517f08c379a0000000000000000000000000000000000000000000000000000000008152600401610eaa9061207f565b60405180910390fd5b6032821115610ef7576040517f08c379a0000000000000000000000000000000000000000000000000000000008152600401610eee9061268c565b60405180910390fd5b6000815111610f3b576040517f08c379a0000000000000000000000000000000000000000000000000000000008152600401610f32906120eb565b60405180910390fd5b6000600a670de0b6b3a764000084610f53919061213a565b610f5d91906121ab565b905080471015610fa2576040517f08c379a0000000000000000000000000000000000000000000000000000000008152600401610f9990612228565b60405180910390fd5b82600260003373ffffffffffffffffffffffffffffffffffffffff1673ffffffffffffffffffffffffffffffffffffffff1681526020019081526020016000206000828254610ff19190612248565b925050819055506001600360003373ffffffffffffffffffffffffffffffffffffffff1673ffffffffffffffffffffffffffffffffffffffff16815260200190815260200160002060008282546110489190612248565b9250508190555081600460003373ffffffffffffffffffffffffffffffffffffffff1673ffffffffffffffffffffffffffffffffffffffff168152602001908152602001600020908161109b9190612428565b5080600560003373ffffffffffffffffffffffffffffffffffffffff1673ffffffffffffffffffffffffffffffffffffffff16815260200190815260200160002060008282546110eb9190612248565b925050819055506001600760008282546111059190612248565b925050819055503373ffffffffffffffffffffffffffffffffffffffff167f0a03a0a36d860ddb2eae77045a684bf1a2c25f1b086850bb1ebab21d6b1e98f584846040516111549291906125a4565b60405180910390a25061116561182b565b5050565b60026020528060005260406000206000915090505481565b60065481565b6000806000806006546007544761119c61121a565b73ffffffffffffffffffffffffffffffffffffffff1631935093509350935090919293565b600047905090565b6111d161175e565b6001600860006101000a81548160ff021916908315150217905550565b60036020528060005260406000206000915090505481565b61120e61175e565b6112186000611834565b565b60008060009054906101000a900473ffffffffffffffffffffffffffffffffffffffff16905090565b61124b61175e565b600860009054906101000a900460ff161561129b576040517f08c379a000000000000000000000000000000000000000000000000000000000815260040161129290612620565b60405180910390fd5b6112a6838383610a1b565b505050565b6112b361175e565b6000600860006101000a81548160ff021916908315150217905550565b600460205280600052604060002060009150905080546112ef90611f96565b80601f016020809104026020016040519081016040528092919081815260200182805461131b90611f96565b80156113685780601f1061133d57610100808354040283529160200191611368565b820191906000526020600020905b81548152906001019060200180831161134b57829003601f168201915b505050505081565b6113786117dc565b6000600560003373ffffffffffffffffffffffffffffffffffffffff1673ffffffffffffffffffffffffffffffffffffffff168152602001908152602001600020549050600081116113ff576040517f08c379a00000000000000000000000000000000000000000000000000000000081526004016113f6906126f8565b60405180910390fd5b80471015611442576040517f08c379a000000000000000000000000000000000000000000000000000000000815260040161143990612228565b60405180910390fd5b6000600560003373ffffffffffffffffffffffffffffffffffffffff1673ffffffffffffffffffffffffffffffffffffffff1681526020019081526020016000208190555080600660008282546114999190612248565b9250508190555060003373ffffffffffffffffffffffffffffffffffffffff16826040516114c690611e7a565b60006040518083038185875af1925050503d8060008114611503576040519150601f19603f3d011682016040523d82523d6000602084013e611508565b606091505b505090508061154c576040517f08c379a000000000000000000000000000000000000000000000000000000000815260040161154390612546565b60405180910390fd5b3373ffffffffffffffffffffffffffffffffffffffff167f106f923f993c2149d49b4255ff723acafa1f2d94393f561d3eda32ae348f7241836040516115929190611919565b60405180910390a23373ffffffffffffffffffffffffffffffffffffffff167f30be20647ef48853811ef5192dbad5d3cc1500699f3633cf3f640b49364ab5cc8360006040516115e3929190612776565b60405180910390a250506115f561182b565b565b6115ff61175e565b60003411611642576040517f08c379a0000000000000000000000000000000000000000000000000000000008152600401611639906127fe565b60405180910390fd5b3373ffffffffffffffffffffffffffffffffffffffff167f543ba50a5eec5e6178218e364b1d0f396157b3c8fa278522c2cb7fd99407d474346040516116889190611919565b60405180910390a2565b61169a61175e565b600073ffffffffffffffffffffffffffffffffffffffff168173ffffffffffffffffffffffffffffffffffffffff1603611709576040517f08c379a000000000000000000000000000000000000000000000000000000000815260040161170090612890565b60405180910390fd5b61171281611834565b50565b6000600560008373ffffffffffffffffffffffffffffffffffffffff1673ffffffffffffffffffffffffffffffffffffffff168152602001908152602001600020549050919050565b6117666118f8565b73ffffffffffffffffffffffffffffffffffffffff1661178461121a565b73ffffffffffffffffffffffffffffffffffffffff16146117da576040517f08c379a00000000000000000000000000000000000000000000000000000000081526004016117d1906128fc565b60405180910390fd5b565b600260015403611821576040517f08c379a000000000000000000000000000000000000000000000000000000000815260040161181890612968565b60405180910390fd5b6002600181905550565b60018081905550565b60008060009054906101000a900473ffffffffffffffffffffffffffffffffffffffff169050816000806101000a81548173ffffffffffffffffffffffffffffffffffffffff021916908373ffffffffffffffffffffffffffffffffffffffff1602179055508173ffffffffffffffffffffffffffffffffffffffff168173ffffffffffffffffffffffffffffffffffffffff167f8be0079c531659141344cd1fd0a4f28419497f9722a3daafe3b4186f6b6457e060405160405180910390a35050565b600033905090565b6000819050919050565b61191381611900565b82525050565b600060208201905061192e600083018461190a565b92915050565b6000604051905090565b600080fd5b600080fd5b61195181611900565b811461195c57600080fd5b50565b60008135905061196e81611948565b92915050565b60006020828403121561198a5761198961193e565b5b60006119988482850161195f565b91505092915050565b600073ffffffffffffffffffffffffffffffffffffffff82169050919050565b60006119cc826119a1565b9050919050565b6119dc816119c1565b81146119e757600080fd5b50565b6000813590506119f9816119d3565b92915050565b600060208284031215611a1557611a1461193e565b5b6000611a23848285016119ea565b91505092915050565b60008115159050919050565b611a4181611a2c565b82525050565b6000602082019050611a5c6000830184611a38565b92915050565b600081519050919050565b600082825260208201905092915050565b60005b83811015611a9c578082015181840152602081019050611a81565b60008484015250505050565b6000601f19601f8301169050919050565b6000611ac482611a62565b611ace8185611a6d565b9350611ade818560208601611a7e565b611ae781611aa8565b840191505092915050565b600060a082019050611b07600083018861190a565b611b14602083018761190a565b8181036040830152611b268186611ab9565b9050611b35606083018561190a565b611b42608083018461190a565b9695505050505050565b600080fd5b600080fd5b7f4e487b7100000000000000000000000000000000000000000000000000000000600052604160045260246000fd5b611b8e82611aa8565b810181811067ffffffffffffffff82111715611bad57611bac611b56565b5b80604052505050565b6000611bc0611934565b9050611bcc8282611b85565b919050565b600067ffffffffffffffff821115611bec57611beb611b56565b5b611bf582611aa8565b9050602081019050919050565b82818337600083830152505050565b6000611c24611c1f84611bd1565b611bb6565b905082815260208101848484011115611c4057611c3f611b51565b5b611c4b848285611c02565b509392505050565b600082601f830112611c6857611c67611b4c565b5b8135611c78848260208601611c11565b91505092915050565b600080600060608486031215611c9a57611c9961193e565b5b6000611ca8868287016119ea565b9350506020611cb98682870161195f565b925050604084013567ffffffffffffffff811115611cda57611cd9611943565b5b611ce686828701611c53565b9150509250925092565b60008060408385031215611d0757611d0661193e565b5b6000611d158582860161195f565b925050602083013567ffffffffffffffff811115611d3657611d35611943565b5b611d4285828601611c53565b9150509250929050565b6000608082019050611d61600083018761190a565b611d6e602083018661190a565b611d7b604083018561190a565b611d88606083018461190a565b95945050505050565b611d9a816119c1565b82525050565b6000602082019050611db56000830184611d91565b92915050565b60006020820190508181036000830152611dd58184611ab9565b905092915050565b7f496e73756666696369656e742062616c616e6365000000000000000000000000600082015250565b6000611e13601483611a6d565b9150611e1e82611ddd565b602082019050919050565b60006020820190508181036000830152611e4281611e06565b9050919050565b600081905092915050565b50565b6000611e64600083611e49565b9150611e6f82611e54565b600082019050919050565b6000611e8582611e57565b9150819050919050565b7f5769746864726177616c206661696c6564000000000000000000000000000000600082015250565b6000611ec5601183611a6d565b9150611ed082611e8f565b602082019050919050565b60006020820190508181036000830152611ef481611eb8565b9050919050565b7f4e6f2066756e647320746f207769746864726177000000000000000000000000600082015250565b6000611f31601483611a6d565b9150611f3c82611efb565b602082019050919050565b60006020820190508181036000830152611f6081611f24565b9050919050565b7f4e487b7100000000000000000000000000000000000000000000000000000000600052602260045260246000fd5b60006002820490506001821680611fae57607f821691505b602082108103611fc157611fc0611f67565b5b50919050565b7f496e76616c696420706c61796572206164647265737300000000000000000000600082015250565b6000611ffd601683611a6d565b915061200882611fc7565b602082019050919050565b6000602082019050818103600083015261202c81611ff0565b9050919050565b7f53636f7265206d75737420626520706f73697469766500000000000000000000600082015250565b6000612069601683611a6d565b915061207482612033565b602082019050919050565b600060208201905081810360008301526120988161205c565b9050919050565b7f47656e7265207265717569726564000000000000000000000000000000000000600082015250565b60006120d5600e83611a6d565b91506120e08261209f565b602082019050919050565b60006020820190508181036000830152612104816120c8565b9050919050565b7f4e487b7100000000000000000000000000000000000000000000000000000000600052601160045260246000fd5b600061214582611900565b915061215083611900565b925082820261215e81611900565b915082820484148315176121755761217461210b565b5b5092915050565b7f4e487b7100000000000000000000000000000000000000000000000000000000600052601260045260246000fd5b60006121b682611900565b91506121c183611900565b9250826121d1576121d061217c565b5b828204905092915050565b7f496e73756666696369656e7420636f6e74726163742062616c616e6365000000600082015250565b6000612212601d83611a6d565b915061221d826121dc565b602082019050919050565b6000602082019050818103600083015261224181612205565b9050919050565b600061225382611900565b915061225e83611900565b92508282019050808211156122765761227561210b565b5b92915050565b60008190508160005260206000209050919050565b60006020601f8301049050919050565b600082821b905092915050565b6000600883026122de7fffffffffffffffffffffffffffffffffffffffffffffffffffffffffffffffff826122a1565b6122e886836122a1565b95508019841693508086168417925050509392505050565b6000819050919050565b600061232561232061231b84611900565b612300565b611900565b9050919050565b6000819050919050565b61233f8361230a565b61235361234b8261232c565b8484546122ae565b825550505050565b600090565b61236861235b565b612373818484612336565b505050565b5b818110156123975761238c600082612360565b600181019050612379565b5050565b601f8211156123dc576123ad8161227c565b6123b684612291565b810160208510156123c5578190505b6123d96123d185612291565b830182612378565b50505b505050565b600082821c905092915050565b60006123ff600019846008026123e1565b1980831691505092915050565b600061241883836123ee565b9150826002028217905092915050565b61243182611a62565b67ffffffffffffffff81111561244a57612449611b56565b5b6124548254611f96565b61245f82828561239b565b600060209050601f8311600181146124925760008415612480578287015190505b61248a858261240c565b8655506124f2565b601f1984166124a08661227c565b60005b828110156124c8578489015182556001820191506020850194506020810190506124a3565b868310156124e557848901516124e1601f8916826123ee565b8355505b6001600288020188555050505b505050505050565b7f546f6b656e207472616e73666572206661696c65640000000000000000000000600082015250565b6000612530601583611a6d565b915061253b826124fa565b602082019050919050565b6000602082019050818103600083015261255f81612523565b9050919050565b600060608201905061257b600083018661190a565b612588602083018561190a565b818103604083015261259a8184611ab9565b9050949350505050565b60006040820190506125b9600083018561190a565b81810360208301526125cb8184611ab9565b90509392505050565b7f47616d6573206172652070617573656400000000000000000000000000000000600082015250565b600061260a601083611a6d565b9150612615826125d4565b602082019050919050565b60006020820190508181036000830152612639816125fd565b9050919050565b7f53636f72652063616e6e6f742065786365656420353000000000000000000000600082015250565b6000612676601683611a6d565b915061268182612640565b602082019050919050565b600060208201905081810360008301526126a581612669565b9050919050565b7f4e6f2070656e64696e6720726577617264730000000000000000000000000000600082015250565b60006126e2601283611a6d565b91506126ed826126ac565b602082019050919050565b60006020820190508181036000830152612711816126d5565b9050919050565b6000819050919050565b600061273d61273861273384612718565b612300565b611900565b9050919050565b61274d81612722565b82525050565b6000612760600083611a6d565b915061276b82611e54565b600082019050919050565b600060608201905061278b600083018561190a565b6127986020830184612744565b81810360408301526127a981612753565b90509392505050565b7f4d757374206465706f73697420736f6d65204d4f4e20746f6b656e7300000000600082015250565b60006127e8601c83611a6d565b91506127f3826127b2565b602082019050919050565b60006020820190508181036000830152612817816127db565b9050919050565b7f4f776e61626c653a206e6577206f776e657220697320746865207a65726f206160008201527f6464726573730000000000000000000000000000000000000000000000000000602082015250565b600061287a602683611a6d565b91506128858261281e565b604082019050919050565b600060208201905081810360008301526128a98161286d565b9050919050565b7f4f776e61626c653a2063616c6c6572206973206e6f7420746865206f776e6572600082015250565b60006128e6602083611a6d565b91506128f1826128b0565b602082019050919050565b60006020820190508181036000830152612915816128d9565b9050919050565b7f5265656e7472616e637947756172643a207265656e7472616e742063616c6c00600082015250565b6000612952601f83611a6d565b915061295d8261291c565b602082019050919050565b6000602082019050818103600083015261298181612945565b905091905056fea164736f6c634300081c000a",
  "linkReferences": {},
  "deployedLinkReferences": {}
}